:020000040800F2
:1000000000000220DD420008051100080711000869
:10001000091100080B1100080D1100080000000074
:100020000000000000000000000000000F110008A8
:10003000111100080000000013110008151100083C
:100040002D4300082D4300082D4300082D430008D0
:100050002D4300082D4300082D4300082D430008C0
:100060002D4300082D4300082D4300082D430008B0
:100070002D4300082D4300082D4300082D430008A0
:100080002D4300082D4300082D4300082D43000890
:100090002D4300082D4300082D4300082D43000880
:1000A0002D4300082D4300082D4300082D43000870
:1000B0001D1100082D4300082D4300082D430008A2
:1000C0002D4300082D4300082D4300082D43000850
:1000D0002D4300082D4300082D4300082D43000840
:1000E0002D1100082D4300082D4300082D43000862
:1000F0002D4300082D4300082D4300082D43000820
:100100002D4300082D4300082D4300082D4300080F
:100110002D4300082D4300082D4300082D430008FF
:100120002D4300082D4300082D4300082D430008EF
:100130002D4300082D4300082D4300082D430008DF
:100140002D4300082D4300082D4300082D430008CF
:100150002D4300082D4300082D4300082D430008BF
:100160002D4300082D4300082D4300082D430008AF
:100170002D4300082D4300082D4300082D4300089F
:100180002D4300082D4300082D4300082D4300088F
:100190002D430008000000002D4300082D430008F7
:1001A0002D4300082D4300082D4300082D4300086F
:1001B0002D4300082D4300082D4300082D4300085F
:1001C0002D4300082D4300082D4300082D4300084F
:0801D0002D4300082D43000837
:1001E000034613F8012B002AFBD1181A0138704777
:1001F00001F0FF01102A2BDB10F0070F08D010F8D8
:10020000013B013A8B422DD010F0070F42B3F6D1DB
:10021000F0B441EA012141EA014122F007047FF0F4
:1002200000070023F0E80256083C85EA010586EA4B
:10023000010685FA47F5A3FA87F586FA47F6A5FA87
:1002400087F68EB9EED1F0BC01F0FF0102F0070293
:1002500032B110F8013B013A83EA010313B1F8D13E
:100260000020704701387047002D06BF354603381F
:10027000073815F0010F07D1013015F4807F02BF58
:10028000013015F4C03F0130F0BC0138704700BFA9
:1002900081F0004102E000BF83F0004330B54FEA37
:1002A00041044FEA430594EA050F08BF90EA020FA4
:1002B0001FBF54EA000C55EA020C7FEA645C7FEA37
:1002C000655C00F0E2804FEA5454D4EB5555B8BF5A
:1002D0006D420CDD2C4480EA020281EA030382EACB
:1002E000000083EA010180EA020281EA0303362D5D
:1002F00088BF30BD11F0004F4FEA01314FF4801C30
:100300004CEA113102D0404261EB410113F0004F41
:100310004FEA03334CEA133302D0524263EB4303F8
:1003200094EA050F00F0A780A4F10104D5F1200E96
:100330000DDB02FA0EFC22FA05F2801841F10001F1
:1003400003FA0EF2801843FA05F359410EE0A5F1C5
:1003500020050EF1200E012A03FA0EFC28BF4CF0F6
:10036000020C43FA05F3C01851EBE37101F00045AC
:1003700007D54FF0000EDCF1000C7EEB00006EEBB9
:100380000101B1F5801F1BD3B1F5001F0CD3490843
:100390005FEA30004FEA3C0C04F101044FEA44529A
:1003A00012F5800F80F09A80BCF1004F08BF5FEA21
:1003B000500C50F1000041EB045141EA050130BD01
:1003C0005FEA4C0C404141EB0101013C28BFB1F513
:1003D000801FE9D291F0000F04BF01460020B1FA5E
:1003E00081F308BF2033A3F10B03B3F120020CDA31
:1003F0000C3208DD02F1140CC2F10C0201FA0CF00F
:1004000021FA02F10CE002F11402D8BFC2F1200C73
:1004100001FA02F120FA0CFCDCBF41EA0C01904029
:10042000E41AA2BF01EB0451294330BD6FEA040472
:100430001F3C1CDA0C340EDC04F11404C4F120025D
:1004400020FA04F001FA02F340EA030021FA04F36F
:1004500045EA030130BDC4F10C04C4F1200220FAC6
:1004600002F001FA04F340EA0300294630BD21FA04
:1004700004F0294630BD94F0000F83F4801306BFCA
:1004800081F480110134013D4EE77FEA645C18BFBE
:100490007FEA655C29D094EA050F08BF90EA020F55
:1004A00005D054EA000C04BF1946104630BD91EA4D
:1004B000030F1EBF0021002030BD5FEA545C05D150
:1004C0004000494128BF41F0004130BD14F580048F
:1004D0003CBF01F5801130BD01F0004545F0FE4103
:1004E00041F470014FF0000030BD7FEA645C1ABF38
:1004F000194610467FEA655C1CBF0B46024650EA6F
:10050000013406BF52EA033591EA030F41F400219A
:1005100030BD00BF90F0000F04BF0021704730B520
:100520004FF4806404F132044FF000054FF00001F5
:1005300050E700BF90F0000F04BF0021704730B5B6
:100540004FF4806404F1320410F0004548BF40428B
:100550004FF000013EE700BF42004FEAE2014FEAE0
:1005600031014FEA02701FBF12F07F4393F07F4FBB
:1005700081F06051704732F07F4208BF704793F0BE
:100580007F4F04BF41F40021704730B54FF46074D1
:1005900001F0004521F000411CE700BF50EA0102D4
:1005A00008BF704730B54FF000050AE050EA01027D
:1005B00008BF704730B511F0004502D5404261EBED
:1005C00041014FF4806404F132045FEA915C3FF42E
:1005D000D8AE4FF003025FEADC0C18BF03325FEACB
:1005E000DC0C18BF033202EBDC02C2F1200300FA7C
:1005F00003FC20FA02F001FA03FE40EA0E0021FAA1
:1006000002F11444BDE600BF70B54FF0FF0C4CF48E
:10061000E06C1CEA11541DBF1CEA135594EA0C0F40
:1006200095EA0C0F00F0DEF82C4481EA030621EA7B
:100630004C5123EA4C5350EA013518BF52EA0335B6
:1006400041F4801143F4801338D0A0FB02CE4FF068
:100650000005E1FB02E506F00042E0FB03E54FF098
:100660000006E1FB03569CF0000F18BF4EF0010E90
:10067000A4F1FF04B6F5007F64F5407404D25FEA8C
:100680004E0E6D4146EB060642EAC62141EA55513F
:100690004FEAC52040EA5E504FEACE2EB4F1FD0C81
:1006A00088BFBCF5E06F1ED8BEF1004F08BF5FEAFF
:1006B000500E50F1000041EB045170BD06F00046B1
:1006C00046EA010140EA020081EA0301B4EB5C045E
:1006D000C2BFD4EB0C0541EA045170BD41F4801156
:1006E0004FF0000E013C00F3AB8014F1360FDEBF7B
:1006F000002001F0004170BDC4F10004203C35DA57
:100700000C341BDC04F11404C4F1200500FA05F3D9
:1007100020FA04F001FA05F240EA020001F000427A
:1007200021F0004110EBD37021FA04F642EB0601F0
:100730005EEA430E08BF20EAD37070BDC4F10C041A
:10074000C4F1200500FA04F320FA05F001FA04F2DE
:1007500040EA020001F0004110EBD37041F10001CA
:100760005EEA430E08BF20EAD37070BDC4F12005D5
:1007700000FA05F24EEA020E20FA04F301FA05F23D
:1007800043EA020321FA04F001F0004121FA04F2E5
:1007900020EA020000EBD3705EEA430E08BF20EAB5
:1007A000D37070BD94F0000F0FD101F000464000EF
:1007B00041EB010111F4801F08BF013CF7D041EA71
:1007C000060195F0000F18BF704703F00046520075
:1007D00043EB030313F4801F08BF013DF7D043EA46
:1007E0000603704794EA0C0F0CEA135518BF95EAFC
:1007F0000C0F0CD050EA410618BF52EA4306D1D183
:1008000081EA030101F000414FF0000070BD50EAA1
:10081000410606BF1046194652EA430619D094EA2B
:100820000C0F02D150EA013613D195EA0C0F05D115
:1008300052EA03361CBF104619460AD181EA030169
:1008400001F0004141F0FE4141F470014FF0000021
:1008500070BD41F0FE4141F4780170BD70B54FF0BC
:10086000FF0C4CF4E06C1CEA11541DBF1CEA13553C
:1008700094EA0C0F95EA0C0F00F0A7F8A4EB05041E
:1008800081EA030E52EA03354FEA013100F0888015
:100890004FEA03334FF0805545EA131343EA1263DE
:1008A0004FEA022245EA111545EA10654FEA002693
:1008B0000EF000419D4208BF964244F1FD0404F54C
:1008C000407402D25B084FEA3202B61A65EB0305A8
:1008D0005B084FEA32024FF480104FF4002CB6EB65
:1008E000020E75EB030E22BFB61A754640EA0C00E5
:1008F0005B084FEA3202B6EB020E75EB030E22BF25
:10090000B61A754640EA5C005B084FEA3202B6EB65
:10091000020E75EB030E22BFB61A754640EA9C0024
:100920005B084FEA3202B6EB020E75EB030E22BFF4
:10093000B61A754640EADC0055EA060E18D04FEAB2
:10094000051545EA16754FEA06164FEAC30343EA52
:1009500052734FEAC2025FEA1C1CC0D111F4801F1F
:100960000BD141EA00014FF000004FF0004CB6E718
:1009700011F4801F04BF01430020B4F1FD0C88BFB7
:10098000BCF5E06F3FF6AFAEB5EB030C04BFB6EBC2
:10099000020C5FEA500C50F1000041EB045170BDB5
:1009A0000EF0004E4EEA113114EB5C04C2BFD4EBE2
:1009B0000C0541EA045170BD41F480114FF0000E66
:1009C000013C90E645EA060E8DE60CEA135594EAE2
:1009D0000C0F08BF95EA0C0F3FF43BAF94EA0C0FE5
:1009E0000AD150EA01347FF434AF95EA0C0F7FF45A
:1009F00025AF104619462CE795EA0C0F06D152EAAE
:100A000003353FF4FDAE1046194622E750EA410691
:100A100018BF52EA43067FF4C5AE50EA41047FF4A2
:100A20000DAF52EA43057FF4EBAE12E74FF0FF3C07
:100A300006E000BF4FF0010C02E000BF4FF0010CD8
:100A40004DF804CD4FEA410C7FEA6C5C4FEA430C51
:100A500018BF7FEA6C5C1BD001B050EA410C0CBFA0
:100A600052EA430C91EA030F02BF90EA020F002002
:100A7000704710F1000F91EA030F58BF994208BF69
:100A800090422CBFD8176FEAE37040F00100704726
:100A90004FEA410C7FEA6C5C02D150EA013C07D17D
:100AA0004FEA430C7FEA6C5CD6D152EA033CD3D0C8
:100AB0005DF8040B704700BF8446104662468C46C2
:100AC0001946634600E000BF01B5FFF7B7FF0028F5
:100AD00048BF10F1000F01BD4DF808EDFFF7F4FF1E
:100AE0000CBF012000205DF808FB00BF4DF808EDA9
:100AF000FFF7EAFF34BF012000205DF808FB00BFCC
:100B00004DF808EDFFF7E0FF94BF012000205DF8ED
:100B100008FB00BF4DF808EDFFF7CEFF94BF0120A2
:100B200000205DF808FB00BF4DF808EDFFF7C4FF9B
:100B300034BF012000205DF808FB00BF4FEA410CE4
:100B40007FEA6C5C02D150EA013C0AD14FEA430CC7
:100B50007FEA6C5C02D152EA033C02D14FF0000004
:100B600070474FF0010070474FEA410212F5001242
:100B700015D211D56FF47873B3EB625212D94FEAE4
:100B8000C12343F0004343EA505311F0004F23FACE
:100B900002F018BF404270474FF00000704750EA23
:100BA000013005D111F0004008BF6FF000407047E0
:100BB0004FF00000704700BF4FEA4102B2F1E0433E
:100BC00024BFB3F5001CDCF1FE5C0DD901F0004C34
:100BD0004FEAC0024CEA5070B2F1004F40EB830084
:100BE00008BF20F00100704711F0804F21D113F1B0
:100BF0003872BCBF01F00040704741F480114FEAE9
:100C00005252C2F11802C2F1200C10FA0CF320FA71
:100C100002F018BF40F001004FEAC1234FEAD3238E
:100C200003FA0CFC40EA0C0023FA02F34FEA4303F8
:100C3000CCE77FEA625307D150EA01331EBF4FF081
:100C4000FE4040F44000704701F0004040F0FE409C
:100C500040F40000704700BF53B94AB9002908BFEB
:100C600000281CBF4FF0FF314FF0FF3000F00CB8F0
:100C7000ADF1080C6DE904CE05F056F8DDF804E09E
:100C8000DDE9022304B07047704700BF10B5054C82
:100C9000237833B9044B13B10448AFF30080012328
:100CA000237010BD7000002000000000F05F0008FD
:100CB00008B5034B1BB103490348AFF3008008BDDF
:100CC0000000000074000020F05F000810B58CB038
:100CD000002409940A940B942022214601A803F0D1
:100CE00047FB20484FF0A04303604FF4403343607C
:100CF0008460C460046144610423836104774477A1
:100D00000123036280F82440C462046380F8384001
:100D1000C46380F8404000F05DFBC8B9002309932C
:100D200009A9104801F088F9A8B90F4B01930623CF
:100D30000293002303937F220492042205920693D8
:100D40000DEB0201074800F049FD38B90CB010BDA9
:100D500000F066F9E2E700F063F9E6E700F060F919
:100D6000F4E700BF8C0000200200300410B59CB0F6
:100D7000044600211791189119911A911B91542240
:100D800002A803F0F5FA2368B3F1A04F01D01CB01C
:100D900010BD4FF4004302934FF00053139302A889
:100DA00002F046F8F0B9114BDA6C42F40052DA6402
:100DB000DA6C02F400520092009ADA6C42F00102FE
:100DC000DA64DB6C03F001030193019B01231793A9
:100DD000032318930023199317A94FF0904001F0B3
:100DE00091FAD4E700F01CF9DDE700BF00100240E3
:100DF00010B58AB0002405940694079408940994C9
:100E0000254BDA6C42F00402DA64DA6C02F0040278
:100E10000192019ADA6C42F02002DA64DA6C02F094
:100E200020020292029ADA6C42F00102DA64DA6C71
:100E300002F001020392039ADA6C42F00202DA64D1
:100E4000DB6C03F002030493049B224620214FF045
:100E5000904001F041FB4FF4005305934FF4881389
:100E60000693079405A90D4801F04CFA2023059339
:100E7000012306930794089405A94FF0904001F0D0
:100E800041FA22462146282001F014FA282001F0D8
:100E900021FA0AB010BD00BF00100240000800484F
:100EA00030B40568164CA4FB05C5AD091D60056886
:100EB000A4FB05C4A4094FF47A7C0CFB1454046011
:100EC0001C681048A0FB0454640914601D68A0FB52
:100ED00005C46409C4EB0414A5EB84041C60136806
:100EE000A0FB03435B090B601368A0FB03104009E0
:100EF000C0EB0010A3EB8000106030BC704700BF57
:100F0000D34D62108988888810B586B0044600F0F9
:100F10002DFA029003AB04AA05A902A8FFF7C0FFAF
:100F2000029B0193039B0093049B059A0249204670
:100F300003F0FEF906B010BD0860000800000000D4
:100F400030B595B0324C204600F070FFC8212046E5
:100F500000F094FB204600F03DFC0546204601F0E1
:100F600049F82846FFF7D6FA1FA3D3E90023FFF775
:100F70004BFBFFF721FEFFF7EFFA1DA3D3E9002398
:100F8000FFF76CFC9FED1C1B41EC100B03F078FE8F
:100F900051EC100B00221F4BFFF780F902460B4665
:100FA00017A1D1E90001FFF759FC17A3D3E90023EA
:100FB000FFF774F9FFF7D8FD044610A8FFF7A4FF68
:100FC000234610AA1449684603F0B2F96846FFF7B1
:100FD00007F9C82382B26946104803F012F815B029
:100FE00030BD00BFAFF30080144001144001543FF6
:100FF000D2A9756EA76F043F583849F3C774FC3FF8
:1010000067358872E7602E42BEC1172653F95E40ED
:101010008C0000200000F03F18600008C401002090
:1010200072B6FEE700B595B03822002106A803F09D
:101030009FF900200190029003900490059001F028
:101040005FFA022306934FF48072099240220A92BB
:101050000D930E9304220F92552210921193129326
:10106000139306A801F006FB80B90F230193032315
:101070000293002303930493059304210DEB0100D5
:1010800001F0B0FD20B915B05DF804FBFFF7C8FF13
:10109000FFF7C6FF08B500F04DF9FFF7C3FFFFF7F4
:1010A000A7FE00F0A9F8FFF711FE00F04FF8054C7D
:1010B000054A0E21204602F01AFA204602F0B0F846
:1010C000FEE700BFF8000020410F000800B583B024
:1010D0000B4B1A6E42F001021A661A6E02F0010200
:1010E0000092009A9A6D42F080529A659B6D03F0CF
:1010F00080530193019B01F089FA03B05DF804FB72
:1011000000100240FEE7FEE7FEE7FEE7FEE770475D
:101110007047704708B500F01DF908BD08B50248D2
:1011200002F0C8F808BD00BFF800002008B54FF471
:10113000005001F0D7F908BD034AD2F8883043F4D3
:101140007003C2F88830704700ED00E000B589B048
:10115000002304930593069307930193029303934B
:1011600014484FF080420260A92242608360124A14
:10117000C2600361836102F017FC90B94FF48053A1
:10118000049304A90B4802F009FB68B900230193FA
:10119000039301A9074802F041FC40B909B05DF88A
:1011A00004FBFFF73DFFE9E7FFF73AFFEEE7FFF744
:1011B00037FFF3E7F8000020400D03000368B3F1A8
:1011C000804F00D0704700B583B003F504339A6DAB
:1011D00042F001029A659B6D03F001030193019BAC
:1011E000002211461C2001F065F81C2001F072F865
:1011F00003B05DF804FB000008B51748174B036007
:101200004FF4E133436000238360C36003610C2229
:101210004261836103624362836202F09BFF70B9A3
:1012200000210D4803F00FF860B900210A4803F0CF
:101230002FF850B9084802F0E7FF48B908BDFFF79A
:10124000EFFEEDE7FFF7ECFEEFE7FFF7E9FEF1E772
:10125000FFF7E6FEF2E700BFC40100200080004077
:1012600010B59CB0044600211791189119911A915C
:101270001B91542202A803F07BF82268174B9A4274
:1012800001D01CB010BD2023029302A801F0D0FDB4
:1012900000BB134BDA6D42F00102DA65DA6D02F041
:1012A00001020092009ADA6C42F00102DA64DB6C0F
:1012B00003F001030193019B0C2317930222189260
:1012C000002219921A921B9317A94FF0904001F037
:1012D00019F8D6E7FFF7A4FEDBE700BF0080004067
:1012E00000100240104B1B680BB90120704710B56D
:1012F00004464FF47A70B0FBF3F30C4A1068B0FB6D
:10130000F3F000F0EBFF68B90F2C01D901200AE0DF
:10131000002221464FF0FF3000F0CCFF044B1C6050
:10132000002000E0012010BD04000020000000208B
:101330000800002010B5032000F0AAFF0020FFF7EE
:10134000D1FF10B10124204610BD0446FFF7BEFEB8
:10135000F9E70000034A1368034909680B44136066
:10136000704700BF5402002004000020014B1868A1
:10137000704700BF5402002010B430300B0A9B00AD
:1013800003F00C03C45801F01F014FF01F0C0CFABE
:1013900001FC24EA0C0CC2F384628A404CEA02028B
:1013A000C2505DF8044B704710B414304B0E9B00D4
:1013B00003F00403C458C1F304514FF0070C0CFAB6
:1013C00001FC24EA0C0C8A404CEA0202C2505DF88F
:1013D000044B704730B583B000230193002800F020
:1013E00038810446C36D13B323689A6812F0005F16
:1013F00005D09A6822F0204222F03F029A602268CB
:10140000936813F0805F1FD1936823F0104323F09B
:101410003F0343F0805393608F4B1B689B098F4AB7
:10142000A2FB03239B0901335B00019309E0FFF753
:101430009DFC0023236684F85830D5E7019B013BCF
:101440000193019B002BF9D12268936813F0805F10
:101450003DD1E36D43F01003E365236E43F00103D8
:1014600023660120936813F0040300D00123E16D8B
:1014700011F0100F40F0E680002B40F0E380E36DA8
:1014800023F4817343F00203E365936813F0010FC3
:101490003ED1B2F1A04F1CD0714B9A4219D0714B82
:1014A000996811F0010100D001216F4B9B6813F086
:1014B000010300D001230B436C49896811F001013D
:1014C00000D001210B430CBF0123002312E00020B8
:1014D000C8E74FF0A043996811F0010100D0012145
:1014E0005F4B9B6813F0010300D001230B430CBF3B
:1014F0000123002363B1B2F1A04F72D0584B9A423E
:101500006DD05B4963688A6822F47C1213438B6058
:10151000627FE36B43EA4233E2681343A2681343FA
:1015200094F8242043EA0243012A5CD0E26A22B103
:1015300002F47872216B0A4313432168CD684D4A47
:101540002A401A43CA602268136923F04063616B22
:101550000B43136121688B6813F0040300D001234F
:101560008A6812F0080200D001224BBB42BB237FE5
:1015700094F83820520042EA8332CB6823F4804347
:1015800023F002031343CB602369002B30D0226881
:10159000136943F4803313612268D2F8C03023F416
:1015A0007F5323F03F0321690B43C2F8C03094F806
:1015B0004030012B2BD02268136923F00103136103
:1015C0006369012B35D02268136B23F00F0313637B
:1015D000E36D23F0030343F00103E36537E026499D
:1015E00090E725498EE7A26A013A43EA42439DE724
:1015F0002268136923F4803313612268D2F8C03063
:1016000023F47F5323F03F03C2F8C030CFE72168B3
:101610000B6923F4FF6323F00403626CA56C2A4377
:10162000E56C2A43256D2A43134343F001030B6104
:10163000C6E721680B6B23F00F03226A013A1343BC
:101640000B63C5E7E36D43F01003E365012003B0CE
:1016500030BD0120FBE700BF00000020632D3E05E8
:10166000000100500004005000050050000600502A
:10167000000700500740F0FF000300502DE9F04143
:1016800004460E460368B3F1A04F21D04E4A934260
:101690001BD04E4A976807F01F07A569082D1ED07A
:1016A000092F05D840F22122FA4012F0010F11D182
:1016B000B3F1A04F3AD0444A934235D0434B9B6894
:1016C00013F4604F34D1042509E002F50072E1E71C
:1016D0003F4ADFE7DB6813F0010F1FD10425FFF756
:1016E00045FE804623681A682A4227D1B6F1FF3F9B
:1016F000F8D0FFF73BFEA0EB0800B04201D8002E67
:10170000F0D123681B682B42ECD1E36D43F0040356
:10171000E365002384F85830032050E0E36D43F084
:101720002003E36501204AE0294BC8E7284BC6E7C0
:10173000E36D43F02003E365012040E0E26D42F4F5
:101740000072E265DA6812F4406F11D1627F7AB9F3
:101750001A6812F0080F0BD0E26D22F48072E26575
:10176000E26D12F4805F03D1E26D42F00102E265A6
:10177000154A934213D002F5806293420CD01A4668
:1017800093420FD0092F05D840F22121F94011F0E2
:10179000010F07D1D26806E0A2F58072F0E74FF0A2
:1017A000A042EDE7DA68082D06D012F4804F08D188
:1017B0000C221A60002002E008221A600020BDE816
:1017C000F0810020FBE700BF00010050000700503F
:1017D000000300500368186C70470000F0B583B038
:1017E0000023019390F85830012B00F04382044607
:1017F0000D46012380F858300068836813F0040F09
:1018000009D0E36D43F02003E3650120002384F851
:10181000583003B0F0BD0A684968FFF7ADFD206895
:10182000836813F0040300D00123866816F00806CD
:1018300000D00126002B3ED1002E3CD1AA68B2F187
:10184000004F74D02968FFF7AFFD2268536923F079
:101850000043536169692268D368C3F3C1035B0025
:101860009940286904286FD0603252F820709F4B4D
:101870003B402F6807F0F84C41EA0C010B4343F062
:10188000004342F8203023682869AA69603353F87E
:10189000201021F080710A4343F820202368296931
:1018A0002A7F012A4DD0603353F8212022F00072A4
:1018B000324343F8212023689A6812F0010F12D1B5
:1018C0002A68E8688A49884200F0A580D3F8B010F9
:1018D000C2F3120221EA0202C3F8B020EA68844B84
:1018E0009A4200F0A0802B68824A134200F0BC812B
:1018F0002268B2F1A04F00F055817F498A4200F082
:101900004E817E49896801F0E0707D4DAB4200F068
:101910004B817C4DAB4200F047817B4DAB4200F0E8
:1019200076817A4DAB4200F08A8100206EE700227A
:101930002968FFF739FD2268536943F0004353617A
:1019400088E74FF00076AEE7136E116EC1F3846145
:101950002B68C3F3120078BBC3F38463994233D07E
:1019600021684B6E4A6EC2F384622B68C3F3120087
:1019700078BBC3F384639A4233D021688B6E8A6E3E
:10198000C2F384622B68C3F3120078BBC3F3846391
:101990009A4233D02168CB6ECA6EC2F384622B6840
:1019A000C3F3120078BBC3F384639A4283D1CB6E36
:1019B00023F00043CB667EE793FAA3F313B1B3FAA7
:1019C00083F3CBE72023C9E7136E23F000431366AC
:1019D000C6E793FAA3F313B1B3FA83F3CBE720235B
:1019E000C9E74B6E23F000434B66C6E793FAA3F3B7
:1019F00013B1B3FA83F3CBE72023C9E78B6E23F04F
:101A000000438B66C6E793FAA3F313B1B3FA83F3EB
:101A1000CBE72023C9E7D3F8B010C2F312020A4380
:101A2000C3F8B0205AE720682B68C3F3120626BB20
:101A30009A0E013202F01F02092A8CBF00220122F5
:101A4000002A65D046BB990E0131890601F0F841A4
:101A500076BB9F0E013707F01F070122BA401143E2
:101A6000AEBB9B0E013303F01F0303EB43031B05C7
:101A70001943AA68FFF798FC35E793FAA3F24AB135
:101A8000B2FA82F2013202F01F02092A8CBF002250
:101A90000122D5E72022F5E793FAA3F131B1B1FA9B
:101AA00081F10131890601F0F841D1E72021F8E701
:101AB00093FAA3F24AB1B2FA82F2013202F01F02A3
:101AC0004FF0010C0CFA02F2C9E72022F5E793FA75
:101AD000A3F343B1B3FA83F3013303F01F0303EB22
:101AE00043031B05C4E72023F6E700BF00F0FF0314
:101AF00000007F40000008800001005000070050F7
:101B0000000021C31000C090000052C7000084CB29
:101B1000CEB9990E0131890601F0F841FEB99F0E48
:101B2000013707F01F070122BA40114336BB9B0E55
:101B3000013303F01F0303EB43031E3B1B0543F07C
:101B40000073194395E793FAA3F131B1B1FA81F12A
:101B50000131890601F0F841E0E72021F8E793FA26
:101B6000A3F24AB1B2FA82F2013202F01F024FF040
:101B7000010C0CFA02F2D8E72022F5E793FAA3F35E
:101B80005BB1B3FA83F3013303F01F0303EB4303A9
:101B90001E3B1B0543F00073D3E72023F3E701F559
:101BA0000071AFE63449ADE611F4000F7FF4B5AE35
:101BB000B2F1A04F04D0314B9A4201D0002025E66B
:101BC000B2F1A04F19D02E4B9A4214D02D4A40F4B6
:101BD0000000936823F0E073184390602A4B1B6861
:101BE0009B092A4AA2FB03239B09013303EB43030E
:101BF0009B00019306E0204AE9E71F4AE7E7019BC3
:101C0000013B0193019B002BF9D10020FEE511F06F
:101C1000807F7FF486AEB2F1A04F0ED0184B9A426F
:101C200009D0184A40F08070936823F0E07318439D
:101C300090600020EAE5104AF4E70F4AF2E711F459
:101C4000800F13D10E4B9A4212D0B2F1A04F09D09F
:101C50000C4940F480038A6822F0E07213438B60E1
:101C60000020D3E50449F4E70020CFE50020CDE5CE
:101C70000020CBE50220CCE5000300500006005018
:101C8000000100500007005000000020632D3E05B9
:101C900070B5044603689A6812F0040200D001226D
:101CA000986810F0080000D001200AB900286DD013
:101CB000DA6812F0007F04D0A08B40F2011290424B
:101CC0004ED0022912D023689A6812F0040F0BD06C
:101CD0009A6812F0020F07D19A6822F0004222F0AF
:101CE0003F0242F010029A60012947D023689A68A7
:101CF00012F0080F0BD09A6812F0020F07D19A6801
:101D000022F0004222F03F0242F020029A600229B3
:101D100036D0032936D10C25FFF728FB0646236869
:101D20009B682B4230D0FFF721FB801B0528F6D99A
:101D300023689B682B42F2D0E36D43F01003E36508
:101D4000236E43F00103236601201EE0E36D43F0A0
:101D50001003E365236E43F001032366012014E0C2
:101D60000022196811F0400F04D109498A42EDD8C8
:101D70000132F6E740221A600121A4E70425CBE7EF
:101D80000825C9E70425C7E7002070BD0020FCE74F
:101D9000FFFF3FA338B503689A6812F0010F40D1E6
:101DA00004469968204A114209D0C36D43F01003DC
:101DB000C365036E43F001030366012032E09A68B5
:101DC00022F0004222F03F0242F001029A60FFF747
:101DD000CDFA054623681A6812F0010F1FD19A68E0
:101DE00012F0010F07D19A6822F0004222F03F0260
:101DF00042F001029A60FFF7B9FA431B022BE9D9BE
:101E000023681B6813F0010FE4D1E36D43F0100366
:101E1000E365236E43F001032366012002E0002006
:101E200000E0002038BD00BF3F00008038B5044608
:101E30000368B3F1A04F60D0464A93425AD0464A55
:101E4000956805F01F059B6813F0040F7DD194F889
:101E50005830012B7BD0012384F858302046FFF7FF
:101E600099FF00286DD1E36D23F4706323F0010323
:101E700043F48073E3652368364A934242D002F507
:101E8000806293423BD01A46934200D01DB9E26D66
:101E900022F48012E265E26D12F4805F35D0226E8A
:101EA00022F0060222661C221A60002384F85830B1
:101EB0002368284A93422ED002F58062934227D0AD
:101EC0001A4693422AD0092D05D840F22121E94033
:101ED00011F0010F22D1E36D43F48013E365D36861
:101EE00013F0007F32D0E36D23F4405343F480536A
:101EF000E3652BE002F50072A2E7184AA0E7A2F51D
:101F00008072C1E74FF0A042BEE700222266CAE716
:101F1000A2F58072D5E74FF0A042D2E7DA6812F05E
:101F2000007F05D0E26D22F4405242F48052E26517
:101F30009A6822F0004222F03F0242F004029A60C6
:101F400004E0002384F8583000E0022038BD02206D
:101F5000FCE700BF000100500007005000030050E4
:101F600038B504460268936813F0020300D00123D9
:101F7000916811F0010F39D0002B39D1936803F02B
:101F80000D03012B09D0E36D43F01003E365236ECD
:101F900043F001032366012029E0936823F0004306
:101FA00023F03F0343F002039360236803221A6087
:101FB000FFF7DCF9054623689B6813F0010F13D087
:101FC000FFF7D4F9401B0228F5D923689B6813F06A
:101FD000010FF0D0E36D43F01003E365236E43F08F
:101FE00001032366012002E0002000E0002038BD4C
:101FF0000020FCE790F85830012B1AD010B50446A9
:10200000012380F858300321FFF742FE18B1002366
:1020100084F8583010BD2046FFF7A2FF0028F6D103
:10202000E36D23F4885323F0010343F00103E365D8
:10203000EDE702207047000090F85820012A00F0D8
:10204000D68010B49DB00346012280F858200022AB
:10205000189219920068B0F1A04F47D0654A90429B
:1020600047D000220192019A002A46D0926812F0CD
:10207000040200D00122846814F0040F40F0A7800D
:10208000002A40F0A480B0F1A04F42D05A4A9042BA
:102090003CD05A4A086800285CD0906820F4604020
:1020A0004C6893F838C044EA4C3420439060186878
:1020B000B0F1A04F2FD0504CA0422CD04D48846896
:1020C00014F0010400D001244D48806810F0010094
:1020D00000D0012020434B4CA46814F0010400D030
:1020E000012420430CBF0120002025E0424A019238
:1020F000B9E702F580720192B5E7DA6D42F020028D
:10210000DA65002283F85820012068E002F50072A9
:10211000C0E73D4ABEE74FF0A040846814F00104D8
:1021200000D001243448806810F0010000D0012064
:1021300020430CBF01200020002854D0906820F4D8
:10214000716020F00F000C6889682143084390609B
:10215000002041E0916821F4604191601968B1F17B
:10216000A04F1AD02448814217D02249886810F025
:10217000010000D001202249896811F0010100D03E
:10218000012101431F48806810F0010000D00120A8
:1021900001430CBF0121002110E04FF0A0418868ED
:1021A00010F0010000D001201349896811F00101ED
:1021B00000D0012101430CBF01210021A9B1916888
:1021C00021F4716121F00F019160002004E0DA6DCB
:1021D00042F02002DA650120002283F858201DB069
:1021E0005DF8044B70470020F6E70020F4E702207A
:1021F000704700BF0004005000010050000700506D
:10220000000500500006005000030050002807DBC6
:1022100000F01F02400901239340024A42F8203097
:10222000704700BF00E100E0002808DB0901C9B2E7
:1022300000F1604000F5614080F80013704700F045
:102240000F000901C9B2014B1954704714ED00E0A9
:1022500000B500F00700C0F1070CBCF1040F28BF67
:102260004FF0040C031D062B0FD9C31E4FF0FF3E89
:102270000EFA0CF021EA000199400EFA03FE22EA60
:102280000E0241EA02005DF804FB0023EEE70000C5
:10229000074AD36823F4E0631B041B0C000200F41C
:1022A000E060034343F0BF6343F40033D3607047FF
:1022B00000ED00E010B50446054BD868C0F30220DD
:1022C000FFF7C6FF01462046FFF7AEFF10BD00BF77
:1022D00000ED00E008B5FFF799FF08BD0138B0F147
:1022E000807F0BD24FF0E0235861054AF02182F83D
:1022F00023100020986107221A617047012070475F
:1023000000ED00E0F0B583B0002362E085685E0078
:102310000324B44025EA0405CC68B4402C4384600F
:10232000456825EA0C054C68C4F300149C402C4316
:1023300044605FE0DD08083550F8254003F0070CE5
:102340004FEA8C0C4FF00F0E0EFA0CFE24EA0E0E24
:102350000C6904FA0CF444EA0E0440F8254060E0ED
:10236000052400E0002404FA0EF42C430CF1020CC6
:10237000554D45F82C40554CA568D44325EA020636
:102380004F6817F4801F01D042EA05064F4DAE603A
:10239000ED6804EA05064F6817F4001F01D042EA11
:1023A00005064A4DEE606D6804EA05064F6817F4AD
:1023B000003F01D042EA0506444D6E602D682C4076
:1023C0004E6816F4803F01D042EA05043F4A14608B
:1023D00001330A6832FA03F474D04FF0010C0CFA9E
:1023E00003FC1CEA0202F3D04C6804F00304013C35
:1023F000012C8BD94C6804F00304032C0CD0C46866
:102400005D004FF0030C0CFA05FC24EA0C0C8C6800
:10241000AC4044EA0C04C4604C6804F00304022C91
:1024200088D004684FEA430E4FF0030C0CFA0EFC00
:1024300024EA0C0C4C6804F0030404FA0EF444EA99
:102440000C0404604C6814F4403FC1D0204C256E4D
:1024500045F001052566246E04F001040194019CF9
:102460004FEA930C0CF10205174C54F8255003F079
:10247000030E4FEA8E0E0F2404FA0EF425EA04052B
:10248000B0F1904F3FF46EAF124CA04212D004F561
:102490008064A04210D004F58064A0420ED004F500
:1024A0008064A0420CD004F58064A0423FF458AF91
:1024B000062458E7012456E7022454E7032452E790
:1024C000042450E703B0F0BD0000014000040140C7
:1024D00000100240000400480AB181617047816227
:1024E0007047704708B5054B5B69034200D108BDD2
:1024F000024B5861FFF7F5FFF9E700BF0004014008
:10250000002836D13E4B1B6803F4C063B3F5806FDF
:1025100008D03B4AD2F8803023F48073C2F8803070
:1025200000207047364AD2F8803023F48073C2F816
:102530008030136823F4C06343F400731360314B9D
:102540001B68322202FB03F32F4AA2FB03239B0CDE
:10255000013300E0013B2A4A526912F4806F01D036
:10256000002BF7D1264B5B6913F4806F44D1002018
:102570007047B0F5007F08D0214A136823F4C06388
:1025800043F480631360002070471D4B1B6803F405
:10259000C063B3F5806F08D0194AD2F8803043F495
:1025A0008073C2F8803000207047154AD2F880301E
:1025B00043F48073C2F88030136823F4C06343F49B
:1025C000007313600F4B1B68322202FB03F30E4AA9
:1025D000A2FB03239B0C013300E0013B084A526934
:1025E00012F4806F01D0002BF7D1054B5B6913F417
:1025F000806F03D10020704703207047032070478D
:10260000007000400000002083DE1B43024A9368F4
:1026100043F480439360704700700040124BDA68C7
:1026200002F00302DB68C3F303130133032A11D062
:102630000E48B0FBF3F00C4BDB68C3F3062303FB3F
:1026400000F0094BDB68C3F3416301335B00B0FB6F
:10265000F3F070470648B0FBF3F0034BDB68C3F3BD
:10266000062303FB00F0ECE7001002400024F40016
:1026700000366E01002800F0548270B582B0044626
:10268000036813F0010F37D0A44A936803F00C03DA
:10269000D26802F003020C2B23D0082B23D06368EE
:1026A000B3F5803F4ED0B3F5A02F51D09B4B1A68A5
:1026B00022F480321A601A6822F480221A60636859
:1026C000002B52D0FEF752FE0546944B1B6813F4C4
:1026D000003F11D1FEF74AFE401B6428F5D90320C4
:1026E00028E2032AD9D18D4B1B6813F4003F03D095
:1026F0006368002B00F01782236813F0020F5DD08F
:10270000864A936803F00C03D26802F003020C2B94
:102710003AD0042B3AD0E368002B75D07F4A136877
:1027200043F480731360FEF721FE05467B4B1B6864
:1027300013F4806F5FD1FEF719FE401B0228F5D914
:102740000320F7E1754A136843F480331360B6E75A
:1027500003F18043A3F53C331A6842F480221A60E7
:102760001A6842F480321A60A9E7FEF7FFFD0546B9
:102770006A4B1B6813F4003FBED0FEF7F7FD401B09
:102780006428F5D90320D5E1022AC2D1634B1B6826
:1027900013F4806F03D0E368002B00F0C6815F4A1A
:1027A000536823F0FE43216943EA016353605C4BA5
:1027B0001868FEF797FD002840F0B981236813F0F0
:1027C000080F4CD063699BB3544AD2F8943043F05D
:1027D0000103C2F89430FEF7C9FD05464F4BD3F80C
:1027E000943013F0020F3AD1FEF7C0FD401B0228CF
:1027F000F4D903209EE1494A536823F0FE4321693E
:1028000043EA01635360D9E7444A136823F48073B1
:102810001360FEF7ABFD0546404B1B6813F4806F59
:10282000CCD0FEF7A3FD401B0228F5D9032081E19F
:102830003A4AD2F8943023F00103C2F89430FEF7FC
:1028400095FD0546354BD3F8943013F0020F06D0B2
:10285000FEF78CFD401B0228F4D903206AE12368AF
:1028600013F0040F00F081802C4B9B6D13F0805F00
:1028700036D12A4B9A6D42F080529A659B6D03F0D7
:1028800080530193019B0125264B1B6813F4807F25
:1028900028D0A368012B39D0052B45D01F4BD3F886
:1028A000902022F00102C3F89020D3F8902022F06B
:1028B0000402C3F89020A368002B43D0FEF756FD16
:1028C0000646164BD3F8903013F0020F4CD1FEF7AA
:1028D0004DFD801B41F288339842F2D9032029E153
:1028E0000025D1E70F4A136843F480731360FEF7A5
:1028F0003DFD06460B4B1B6813F4807FC9D1FEF7E4
:1029000035FD801B0228F5D9032013E1034AD2F8D4
:10291000903043F00103C2F89030CCE70010024041
:1029200008000020007000408A4BD3F8902042F04D
:102930000402C3F89020D3F8902042F00102C3F8BB
:102940009020B8E7FEF712FD0646824BD3F8903090
:1029500013F0020F08D0FEF709FD801B41F2883307
:102960009842F2D90320E5E0E5B9236813F0200F7F
:1029700035D0A369E3B1774AD2F8983043F0010328
:10298000C2F89830FEF7F2FC0546724BD3F8983047
:1029900013F0020F23D1FEF7E9FC401B0228F4D903
:1029A0000320C7E06B4A936D23F080539365DCE707
:1029B000684AD2F8983023F00103C2F89830FEF745
:1029C000D5FC0546634BD3F8983013F0020F06D0C0
:1029D000FEF7CCFC401B0228F4D90320AAE0E369EF
:1029E000002B00F0A6805B4A926802F00C020C2AD1
:1029F00069D0022B1DD0574B1A6822F080721A60E2
:102A0000DA6822F00302DA60DA6822F0887222F4CF
:102A10008032DA60FEF7AAFC04464E4B1B6813F0C6
:102A2000007F4ED0FEF7A2FC001B0228F5D9032040
:102A300080E0484A136823F080731360FEF796FC29
:102A40000546444B1B6813F0007F06D0FEF78EFC52
:102A5000401B0228F5D903206CE03E4AD3683E496A
:102A60001940236A606A013843EA0013A06A43EA06
:102A70000023206B4008013843EA4053606B400854
:102A8000013843EA4063E06A43EAC0631943D16016
:102A9000136843F080731360D36843F08073D3608E
:102AA000FEF764FC04462B4B1B6813F0007F06D135
:102AB000FEF75CFC001B0228F5D903203AE0002059
:102AC00038E0002036E0012B36D0224BDB6803F0E3
:102AD0000301226A914231D103F0F002616A0139A7
:102AE000B2EB011F2CD103F4FE42A16AB2EB012F1D
:102AF00028D103F07842E16AB2EBC16F24D103F42C
:102B0000C001226B5208013AB1EB425F1ED103F0C3
:102B1000C063626B5208013AB3EB426F18D10020D8
:102B200008E001207047012004E0012002E00120BC
:102B300000E0002002B070BD0120FBE70120F9E7B2
:102B40000120F7E70120F5E70120F3E70120F1E795
:102B50000120EFE7001002400C809F011E4B9B6894
:102B600003F00C03042B33D01B4B9B6803F00C03C6
:102B7000082B2FD0184B9B6803F00C030C2B01D0B3
:102B800000207047144BDA6802F00302DB68C3F3DD
:102B900003130133032A11D01048B0FBF3F00E4B9E
:102BA000DB68C3F3062303FB00F00B4BDB68C3F3C6
:102BB000416301335B00B0FBF3F070470848B0FBA2
:102BC000F3F0054BDB68C3F3062303FB00F0ECE7EF
:102BD0000248704702487047001002400024F40089
:102BE00000366E01002800F0E680F8B50C46054678
:102BF000744B1B6803F00F038B420BD2714A1368AE
:102C000023F00F030B431360136803F00F038B4291
:102C100040F0D3802E6816F001065FD06B68032B5E
:102C20002FD0022B4DD0684B1B6813F4806F00F03F
:102C3000C680FFF793FF654B98424DD9624A93686F
:102C400023F0F00343F08003936080265E4A93688C
:102C500023F0030369680B439360FEF787FB074685
:102C6000594B9B6803F00C036A68B3EB820F35D0B5
:102C7000FEF77CFBC01B41F288339842F0D9032059
:102C800078E0514B1B6813F0007F01D1012071E007
:102C9000FFF7C4FC4D4B98421AD94B4B9B6813F07D
:102CA000F00F05D02E6816F00206CFD0AB688BB9B6
:102CB000454A936823F0F00343F080039360802635
:102CC000C4E7414B1B6813F4003FB2D1012051E02F
:102CD0000026BBE70026B9E70026B7E72B6813F00C
:102CE000020F48D013F0040F04D0374A936843F41E
:102CF000E06393602B6813F0080F06D0324A9368A4
:102D000023F47C5343F4E06393602F4A936823F0E9
:102D1000F003A9680B4393602A4B1B6803F00F0371
:102D2000A34230D82B6813F0040F06D0264A9368CC
:102D300023F4E063E9680B4393602B6813F0080FFA
:102D400007D0214A936823F46053296943EAC103F9
:102D50009360FFF703FF1C4B9B68C3F303131C4AEC
:102D6000D35C03F01F03D8401A4B18601A4B186845
:102D7000FEF7B8FAF8BD802ECED1134A936823F03F
:102D8000F0039360C8E70F4A136823F00F0323434F
:102D90001360FEF7EBFA06460A4B1B6803F00F03BD
:102DA000A342BFD0FEF7E2FA801B41F2883398427B
:102DB000F2D90320DEE7012070470120DAE7012085
:102DC000D8E700BF002002400010024000B4C40455
:102DD000386000080000002008000020014B18683F
:102DE000704700BF0000002008B5FFF7F7FF054B54
:102DF0009B68C3F30223044AD35C03F01F03D8404B
:102E000008BD00BF001002403060000808B5FFF7A1
:102E1000E5FF054B9B68C3F3C223044AD35C03F070
:102E20001F03D84008BD00BF0010024030600008FA
:102E3000F0B583B00446036813F4002F6ED0354B11
:102E40009B6D13F0805F1ED1324B9A6D42F0805221
:102E50009A659B6D03F080530193019B01262E4AD6
:102E6000136843F480731360FEF780FA05462A4B1B
:102E70001B6813F4807F08D1FEF778FA401B022804
:102E8000F5D9032502E00026E9E7002545BB214BE3
:102E9000D3F8903013F4407315D0226D9A4212D0BB
:102EA0001C4AD2F8903023F44073D2F8901041F4C9
:102EB0008031C2F89010D2F8901021F48031C2F81D
:102EC0009010C2F8903013F0010F10D145B9114A9B
:102ED000D2F8903023F44073216D0B43C2F8903048
:102EE000EEB10C4A936D23F08053936517E0FEF723
:102EF0003DFA0746074BD3F8903013F0020FE5D1A7
:102F0000FEF734FAC01B41F288339842F2D9032508
:102F1000DCE700BF0010024000700040002523687D
:102F200013F0010F08D09F4AD2F8883023F0030332
:102F300061680B43C2F88830236813F0020F08D091
:102F4000984AD2F8883023F00C03A1680B43C2F8EA
:102F50008830236813F0040F08D0924AD2F88830E2
:102F600023F03003E1680B43C2F88830236813F084
:102F7000080F08D08B4AD2F8883023F0C0032169AB
:102F80000B43C2F88830236813F0100F08D0854A2D
:102F9000D2F8883023F4407361690B43C2F888305B
:102FA000236813F0200F08D07E4AD2F8883023F42B
:102FB0004063A1690B43C2F88830236813F0400FC7
:102FC00008D0784AD2F8883023F44053E1690B43A3
:102FD000C2F88830236813F0800F08D0714AD2F805
:102FE000883023F44043216A0B43C2F888302368B9
:102FF00013F4807F08D06B4AD2F8883023F4403332
:10300000616A0B43C2F88830236813F4003F08D08C
:10301000644AD2F89C3023F00303A16A0B43C2F840
:103020009C30236813F4007F08D05E4AD2F88830C1
:1030300023F44023E16A0B43C2F88830236813F479
:10304000806F0CD0574AD2F8883023F44013216B9C
:103050000B43C2F88830236BB3F5801F79D0236807
:1030600013F4006F0CD04F4AD2F8883023F4400399
:10307000616B0B43C2F88830636BB3F5800F6DD082
:10308000236813F4805F0CD0464AD2F8883023F0CE
:103090004073A16B0B43C2F88830A36BB3F1807F00
:1030A00061D0236813F4005F0CD03E4AD2F8883018
:1030B00023F04063E16B0B43C2F88830E36BB3F15C
:1030C000006F55D0236813F4804F0CD0354AD2F8E6
:1030D000883023F04063216C0B43C2F88830236CA6
:1030E000B3F1006F49D0236813F4004F0CD02D4A80
:1030F000D2F8883023F04053616C0B43C2F888301B
:10310000636CB3F1805F3DD0236813F4803F0CD033
:10311000244AD2F8883023F04043A16C0B43C2F814
:103120008830A36CB3F1804F31D0236813F4802F23
:103130000CD01C4AD2F89C3023F44013E16C0B43B2
:10314000C2F89C30E36CB3F5001F25D0284603B0CD
:10315000F0BDD36843F48013D36080E7D36843F4B1
:103160008013D3608CE7D36843F48013D36098E76F
:10317000D36843F48013D360A4E7D36843F4801387
:10318000D360B0E7D36843F48033D360BCE7D3683F
:1031900043F48033D360C8E7D36843F48013D3602B
:1031A000D4E700BF00100240704770477047704777
:1031B00070477047704770477047704710B4036A94
:1031C000046A24F001040462846924F0F00C4CEADF
:1031D000021223F00A030B43826103625DF8044B81
:1031E000704710B4036A23F0100303628469036A12
:1031F00024F4704C4CEA023223F0A00343EA01139A
:10320000826103625DF8044B7047836823F44013C6
:1032100023F070030B4343F0070383607047000003
:1032200090F83D30DBB2012B3AD1022380F83D30DB
:103230000268D36843F00103D36003681B4A9342DA
:1032400020D0B3F1804F1DD0A2F59432934219D013
:1032500002F58062934215D002F58062934211D04C
:1032600002F5943293420DD002F54062934209D0A8
:1032700002F58052934205D01A6842F001021A60AA
:103280000020704799680A4A0A40062A0AD0B2F517
:10329000803F09D01A6842F001021A60002070478E
:1032A000012070470020704700207047002C01402B
:1032B0000700010010B5044603681A6912F0020FF6
:1032C00013D0DA6812F0020F0FD06FF002021A6109
:1032D0000123037703689B6913F0030F00F0E48078
:1032E000D0F8943098470023237723681A6912F0A6
:1032F000040F14D0DA6812F0040F10D06FF004023B
:103300001A610223237723689B6913F4407F00F03E
:10331000D380D4F89430204698470023237723683D
:103320001A6912F0080F14D0DA6812F0080F10D0E2
:103330006FF008021A61042323772368DB6913F016
:10334000030F00F0C280D4F8943020469847002341
:10335000237723681A6912F0100F14D0DA6812F07C
:10336000100F10D06FF010021A6108232377236822
:10337000DB6913F4407F00F0B180D4F8943020462C
:1033800098470023237723681A6912F0010F0AD0A7
:10339000DA6812F0010F06D06FF001021A61D4F85A
:1033A00084302046984723681A6912F0800F0AD0AB
:1033B000DA6812F0800F06D06FF080021A61D4F83C
:1033C000B4302046984723681A6912F4807F0AD0E7
:1033D000DA6812F0800F06D06FF480721A61D4F8A8
:1033E000B8302046984723681A6912F0400F0AD077
:1033F000DA6812F0400F06D06FF040021A61D4F87C
:103400008C302046984723681A6912F0200F0AD0A2
:10341000DA6812F0200F06D06FF020021A61D4F89B
:10342000AC302046984723681A6912F4801F0AD0EE
:10343000DA6812F4801F06D06FF480121A61D4F893
:10344000BC302046984723681A6912F4001F0AD03E
:10345000DA6812F4001F06D06FF400121A61D4F873
:10346000C0302046984723681A6912F4800F0AD0AA
:10347000DA6812F4800F06D06FF480021A61D4F873
:10348000C4302046984723681A6912F4000F0AD006
:10349000DA6812F4000F06D06FF400021A61D4F853
:1034A000C8302046984710BDD0F89C309847D4F8D3
:1034B000A0302046984716E7D4F89C30204698471D
:1034C000D4F8A0302046984727E7D4F89C3020460F
:1034D0009847D4F8A0302046984738E7D4F89C3075
:1034E00020469847D4F8A0302046984749E7002A5C
:1034F00000F0D28010B40346144690F83C20012A14
:1035000000F0CC80012280F83C2090F83D00C0B251
:10351000904212D093F83D2002F0FF00002A40F0C4
:10352000B2800D2900F2B680DFE801F08F92949608
:10353000989A9C9EA0A2A4A6A8AA1F2900F2A480E3
:10354000DFE801F0101316191C1F2225282B2E313D
:1035500034373B3F43474B4F53575B5F63676B6F5A
:1035600073777B7FDC6408468EE01C6500208BE06F
:103570005C65002088E09C65002085E0DC6500201B
:1035800082E01C6600207FE05C6600207CE09C6698
:10359000002079E0DC66002076E01C67002073E004
:1035A0005C67002070E09C6700206DE0DC67002015
:1035B0006AE0C3F88040002066E0C3F88440002041
:1035C00062E0C3F8884000205EE0C3F88C40002031
:1035D0005AE0C3F89040002056E0C3F89440002021
:1035E00052E0C3F8984000204EE0C3F89C40002011
:1035F0004AE0C3F8A040002046E0C3F8A440002001
:1036000042E0C3F8A84000203EE0C3F8AC400020F0
:103610003AE0C3F8B040002036E0C3F8B4400020E0
:1036200032E0C3F8B84000202EE0C3F8BC400020D0
:103630002AE0C3F8C040002026E0C3F8C4400020C0
:1036400022E0C3F8C84000201EE0DC6408461BE00E
:103650001C6519E05C6517E09C6515E0DC6513E00E
:103660001C6611E05C660FE09C660DE0DC660BE01A
:103670001C6709E05C6707E09C6705E0DC6703E026
:10368000C3F8804000E00120002283F83C205DF870
:10369000044B70470120F7E7012070470220F6E74E
:1036A0000368364A904216D0B0F1804F13D0A2F58D
:1036B000943290420FD002F5806290420BD002F516
:1036C0008062904207D002F59432904203D002F516
:1036D000E052904203D123F070034A681343274A13
:1036E000904222D0B0F1804F1FD0A2F59432904288
:1036F0001BD002F58062904217D002F580629042A2
:1037000013D002F5943290420FD002F540629042FD
:103710000BD002F58062904207D002F580629042A1
:1037200003D002F50062904203D123F44073CA68CB
:10373000134323F080034A69134303608B68C36219
:103740000B6883620D4B984213D003F500639842D7
:103750000FD003F5406398420BD003F58063984285
:1037600007D003F58063984203D003F500639842C5
:1037700001D10B690363012343617047002C0140B1
:1037800010B4846824F47F4C42EA03220A4342EADC
:103790000C0282605DF8044B7047000090F83C30EA
:1037A000012B00F09B8010B50446012380F83C30CB
:1037B000022380F83D3002689068494B03409360D3
:1037C0000B68702B61D031D8502B78D00CD9602B7E
:1037D0002AD1CA6849682068FFF703FD6021206884
:1037E000FFF713FD002038E0402B0AD1CA68496872
:1037F0002068FFF7E3FC40212068FFF706FD00206A
:103800002BE067D8202B07D003D9302B04D0012020
:1038100023E00BB1102B05D119462068FFF7F5FC0A
:1038200000201AE0012018E0012016E0B3F5005F47
:1038300038D00ED92B4A9342EED015D92A4A93425A
:10384000EAD010329342E7D0203A9342E4D00120EC
:1038500003E0B3F5805F3FD10020012384F83D30C1
:10386000002384F83C3010BD203A9342D4D004D9D0
:103870001E4A9342D0D00120EFE7B3F5801FCBD092
:10388000B3F1101FC8D00120E7E7CB684A68896808
:103890002068FFF775FF2268936843F07703936011
:1038A0000020DAE7CB684A6889682068FFF768FF7C
:1038B0002268936843F4804393600020CDE7CA6890
:1038C00049682068FFF77AFC50212068FFF79DFCCB
:1038D0000020C2E70120C0E70120BEE702207047B8
:1038E0008800CEFF40001000600010003000100083
:1038F0001B4BC0F884301B4BC0F888301A4BC0F803
:103900008C301A4BC0F89030194BC0F89430194BDA
:10391000C0F89830184BC0F89C30184BC0F8A03055
:10392000174BC0F8A430174BC0F8A830164BC0F89E
:10393000AC30164BC0F8B030154BC0F8B430154B56
:10394000C0F8B830144BC0F8BC30144BC0F8C030CD
:10395000134BC0F8C430134BC0F8C830704700BFD9
:10396000A9310008AB310008B7310008B9310008AF
:10397000AF310008B1310008AD310008B3310008A3
:10398000B5310008BB310008C93A0008CB3A00083D
:10399000CD3A0008CF3A0008D13A0008D33A0008DF
:1039A000D53A0008D73A0008A0B310B5044690F8FD
:1039B0003D3013B3022384F83D30214651F8040B07
:1039C000FFF76EFE012384F8483084F83E3084F817
:1039D0003F3084F8403084F8413084F8423084F835
:1039E000433084F8443084F8453084F8463084F815
:1039F000473084F83D30002010BD80F83C30FFF7A0
:103A000077FFE36C1BB1E36C20469847D2E7024B8B
:103A1000E364F8E701207047BD11000890F83C20EE
:103A2000012A4CD030B40346012280F83C20022207
:103A300080F83D20006842688468224DA84207D083
:103A400005F50065A84203D005F5E055A84203D16D
:103A500022F470024D682A4322F0007222F07002B4
:103A60000D682A4342601A68164882421AD0B2F1A1
:103A7000804F17D0A0F59430824213D000F58060BB
:103A800082420FD000F5806082420BD000F5943066
:103A9000824207D000F54060824203D000F580509A
:103AA000824204D124F0800489682143916001227C
:103AB00083F83D20002083F83C0030BC7047022092
:103AC000704700BF002C0140704770477047704737
:103AD000704770477047704770B504460168836847
:103AE0000269134342691343C26913430868964A43
:103AF00002401A430A602268536823F44053E16885
:103B00000B435360A1692268904B9A4201D0236A0B
:103B10001943936823F06E4323F430630B4393609F
:103B20002268D36A23F00F03616A0B43D3622368D0
:103B3000874A934210D0874A934221D0864A9342C3
:103B400037D0864A93425CD0854A93426BD07F4AF5
:103B500093427DD010223AE002F55842D2F88820F4
:103B600002F00302032A09D8DFE802F00204870604
:103B700001222CE004222AE0082228E0102226E07C
:103B800002F5E632D2F8882002F00C020C2A0ED898
:103B9000DFE802F0070D0D0D090D0D0D750D0D0D72
:103BA0000B00002213E0042211E008220FE0102293
:103BB0000DE002F5E432D2F8882002F03002202A2B
:103BC0005FD01AD8002A5ED0102A5ED104225F4945
:103BD0008B4276D0E069B0F5004F00F0C980082A2A
:103BE00000F23481DFE812F0F7001901F50032012C
:103BF0001C013201320132011F01302A47D1082253
:103C0000E5E702F5E232D2F8882002F0C002802A0D
:103C10003FD004D8FAB3402A3FD10422D7E7C02AC4
:103C20003DD10822D3E702F5E032D2F8882002F431
:103C30004072B2F5007F34D005D8A2B3B2F5807FD0
:103C400033D10422C3E7B2F5407F30D10822BEE76A
:103C500002F5C832D2F8882002F44062B2F5006F53
:103C600027D005D83AB3B2F5806F26D10422AEE74B
:103C7000B2F5406F23D10822A9E70222A7E702226A
:103C8000A5E70222A3E70022A1E710229FE7102266
:103C90009DE702229BE7002299E7102297E7102276
:103CA00095E7022293E7002291E710228FE7102286
:103CB0008DE702228BE7002289E7102287E7102296
:103CC00085E7082A00F2B280DFE802F008B03BB0D6
:103CD00038B0B0B005004FF4004004E0FFF784F8BE
:103CE000002800F0A580626A1E4B33F81220B0FB5A
:103CF000F2F3656805EB4501994200F29B80B3EB56
:103D0000053F00F29980002633463146FCF7A4FFB8
:103D1000090241EA106100026B08C0182A463346C6
:103D200041F10001FCF798FFA0F540720E4B9A425A
:103D300000F284802368D860304665E0FEF70EFF0D
:103D4000CEE70A48CFE700BFF369FFCF008000400D
:103D5000003801400044004000480040004C004052
:103D60000050004048600008FFFC0F000024F400F1
:103D7000082A65D8DFE802F0072705642A6464642E
:103D80000B00354803E0FFF72FF800285AD0626A8D
:103D9000324B33F81230B0FBF3F06268530803EB98
:103DA0004003B3FBF2F3A3F110014FF6EF7291421F
:103DB0004AD89AB222F00F02C3F342031343226897
:103DC000D360002020E0FFF721F8DEE7FEF7C6FE13
:103DD000DBE7214803E0FFF707F8002838D0626AE4
:103DE0001E4B33F81230B0FBF3F0636800EB530066
:103DF000B0FBF3F0A0F110024FF6EF739A4229D80E
:103E0000236880B2D86000200123A4F86A30A4F8A7
:103E1000683000232367636770BDFEF7F7FFDCE7B8
:103E2000FEF79CFED9E74FF40040D8E70120EBE70E
:103E30000020E9E70120E7E70120E5E70120E3E7CB
:103E40000120E1E70020DFE70120DDE70120DBE7DB
:103E50000020D9E70120D7E70024F40048600008DB
:103E6000836A13F0010F06D00268536823F400330D
:103E7000C16A0B435360836A13F0020F06D00268D5
:103E8000536823F48033016B0B435360836A13F050
:103E9000040F06D00268536823F48023416B0B4360
:103EA0005360836A13F0080F06D00268536823F446
:103EB0000043816B0B435360836A13F0100F06D0ED
:103EC0000268936823F48053C16B0B439360836A49
:103ED00013F0200F06D00268936823F40053016C9E
:103EE0000B439360836A13F0400F0AD00268536853
:103EF00023F48013416C0B435360436CB3F5801F74
:103F00000BD0836A13F0800F06D00268536823F445
:103F10000023C16C0B43536070470268536823F45D
:103F2000C003816C0B435360EBE72DE9F843054672
:103F30000F4616469946DDF820802B68DC6937EA83
:103F400004040CBF01240024B44257D1B8F1FF3F50
:103F5000F3D0FDF70BFAA0EB090040452FD8B8F1DC
:103F6000000F2CD02B681A6812F0040FE5D0DA6924
:103F700012F4006FE1D04FF400621A622A6852E82E
:103F8000003F23F4D07342E800310029F6D12A68BB
:103F900002F1080353E8003F23F00103083242E82E
:103FA00000310029F3D12023C5F88430C5F88830CA
:103FB000C5F88C30002385F8803003201FE02A6884
:103FC00052E8003F23F4D07342E800310029F6D1D3
:103FD0002A6802F1080353E8003F23F00103083286
:103FE00042E800310029F3D12023C5F88430C5F818
:103FF0008830002385F88030032000E00020BDE8F1
:10400000F8832DE9F04182B01E46D0F88430202B91
:1040100058D104460D469046002957D0002A57D063
:1040200090F88030012B55D0012380F88030002398
:10403000C0F88C302123C0F88430FDF797F907468B
:10404000A4F85480A4F85680A368B3F5805F05D027
:104050004FF00008002384F8803014E0236913B186
:104060004FF00008F6E7A8460025F3E738F8023BD2
:104070002268C3F308039362B4F8562092B2013A5F
:1040800092B2A4F85620B4F856309BB273B10096A1
:104090003B46002280212046FFF747FFE0B9002D74
:1040A000E4D015F8012B23689A62E5E700963B46B9
:1040B000002240212046FFF738FF78B92023C4F8BA
:1040C000843000E0022002B0BDE8F0810120FAE770
:1040D0000120F8E70220F6E70320F4E70320F2E7E7
:1040E00030B583B004460023C0F88C30FDF73EF9AC
:1040F00005462268126812F0080F0FD123681B686A
:1041000013F0040F18D12023C4F88430C4F8883089
:104110000020E06684F8800003B030BD6FF07E437D
:104120000093034600224FF400112046FFF7FDFEE6
:104130000028E3D00320EFE76FF07E4300932B4687
:1041400000224FF480012046FFF7EFFE0028DAD06E
:104150000320E1E778B310B50446D0F884300BB300
:104160002423C4F884302268136823F00103136009
:104170002046FFF7B1FC012813D0A36ABBB922681F
:10418000536823F4904353602268936823F02A0312
:1041900093602268136843F0010313602046FFF721
:1041A0009FFF10BD80F88030FDF75AF8D8E7204611
:1041B000FFF756FEE3E7012070470000436E2BB97E
:1041C0000123A0F86A30A0F86830704730B4036863
:1041D0009A68C2F342629968490F094D6B5CDB0033
:1041E000084C615C93FBF1F3A0F86A30AB5CDB0038
:1041F000A25C93FBF2F3A0F8683030BC704700BFBC
:10420000686000086060000890F88030012B18D0CA
:10421000012380F880302423C0F8843003681A68B2
:10422000196821F00101196022F000520023436651
:1042300001680A602022C0F8842080F88030184687
:1042400070470220704738B590F88030012B1DD0A0
:104250000446012380F880302423C0F884300368AA
:104260001D681A6822F001021A600268936823F040
:10427000604319439160FFF7A1FF23681D6020236D
:10428000C4F88430002084F8800038BD0220FCE7A8
:1042900038B590F88030012B1DD00446012380F8FA
:1042A00080302423C0F8843003681D681A6822F027
:1042B00001021A600268936823F0606319439160F9
:1042C000FFF77CFF23681D602023C4F884300020A2
:1042D00084F8800038BD0220FCE700000D488546C8
:1042E0000D480E490E4A002302E0D458C45004334E
:1042F000C4188C42F9D30B4A0B4C002301E0136025
:104300000432A242FBD3FCF717FF00F039F8FCF7A8
:10431000C1FEFEE700000220000000207000002027
:10432000B460000870000020A4030020FEE7000035
:104330000EB400B59CB01DAB029006906FF000412A
:10434000094807910491094953F8042B0591006825
:10435000019302A900F08EF9029B00221A701CB092
:104360005DF804EB03B070470C0000200802FFFF6B
:1043700002440346934200D1704703F8011BF9E75A
:1043800070B50D4D0D4C641BA4100026A64209D13A
:104390000B4D0C4C01F02CFE641BA4100026A64211
:1043A00005D170BD55F8043B98470136EEE755F846
:1043B000043B98470136F2E7AC600008AC600008A7
:1043C000AC600008B06000087047704738B505461B
:1043D000002941D051F8043C0C1F002BB8BFE41851
:1043E00000F0E0F81D4A136833B963601460284692
:1043F000BDE8384000F0DCB8A34208D92068211895
:104400008B4201BF19685B6809182160EDE71A4605
:104410005B680BB1A342FAD911685018A0420BD1C6
:1044200020680144501883421160E0D118685B682D
:10443000536008441060DAE702D90C232B60D6E7FA
:10444000206821188B4204BF19685B68636004BF51
:10445000091821605460CAE738BD00BF9C030020E2
:1044600070B50F4E0C463168054611B900F0B2FB2D
:1044700030602146284600F0ADFB431C03D14FF0CD
:10448000FF34204670BDC41C24F00304A042F8D0C1
:10449000211A284600F09EFB0130F2D1EFE700BF61
:1044A000980300202DE9F843CD1C25F003050835BD
:1044B0000C2D38BF0C25002D064601DBA94204D97E
:1044C0000C2333600020BDE8F883DFF8D48000F0CF
:1044D00069F8D8F800301C4644BB29463046FFF73F
:1044E000BFFF431C044658D1D8F800402746002F90
:1044F00043D1002C4BD023683946304604EB0309E6
:1045000000F068FB814542D121686D1A294630468A
:10451000FFF7A6FF01303AD023682B442360D8F878
:1045200000305A6862BBC8F800700FE02268521B66
:1045300020D40B2A17D96119A342256018BF5960EE
:10454000636808BFC8F8001062514B60304600F045
:104550002FF804F10B00231D20F00700C21A1CBF26
:104560001B1AA350AFE76268A3420CBFC8F8002033
:104570005A60EBE723466468AEE73C467F68B6E7DF
:104580001A465B68A342FBD100235360DEE70C238D
:104590003360304600F00CF894E70560D6E700BFC2
:1045A0009C0300200148FFF70FBF00BF94030020C9
:1045B0000148FFF70ABF00BF940300202DE9F04730
:1045C0008E681F46BE420B6882460C4690462DD828
:1045D000B1F90C2012F4906F26D06569096905EBDA
:1045E0004505A3EB010905EBD5757B1C4B446D100C
:1045F0009D4238BF1D46530527D52946FFF752FF78
:10460000064660B321694A4600F0F4FAA38923F410
:10461000906343F08003A381266165614E44A5EB5E
:1046200009052660A5603E46BE4200D93E46206888
:104630003246414600F0B4FAA3689B1BA36023688E
:10464000334423600020BDE8F0872A4600F0E0FAFA
:1046500006460028E0D121695046FFF7B7FE0C233B
:10466000CAF80030A38943F04003A3814FF0FF3024
:10467000E9E700002DE9F04F98468B891B069DB0B5
:1046800007460D46144610D50B6973B94021FFF754
:1046900009FF2860286130B90C233B604FF0FF30E0
:1046A0001DB0BDE8F08F40236B61002309932023E8
:1046B0008DF82930CDF80C803023DFF89C818DF8FF
:1046C0002A304FF0010923469A4613F8012B0AB10C
:1046D000252AF9D1BAEB040B0BD05B4622462946BA
:1046E0003846FFF76BFF013000F0A780099A5A4463
:1046F00009929AF80030002B00F09F8000234FF0C1
:10470000FF32CDE905230AF1010A049307938DF8DE
:1047100053301A935446052214F8011B4E48FBF7F8
:1047200067FD049AD8B9D00644BF20238DF85330D2
:10473000110744BF2B238DF853309AF800302A2BF1
:1047400015D0079A544600204FF00A0C214611F864
:10475000013B303B092B4BD9B0B1079214E0A0EBE1
:10476000080309FA03F313430493A246D2E7039B19
:10477000191D1B680391002BBBBF5B4242F0020274
:1047800007930793B8BF049223782E2B0AD163783E
:104790002A2B32D1039B1A1D1B68039243EAE37351
:1047A00002340593DFF8C0A0217803225046FBF7BE
:1047B0001FFD38B1049BA0EB0A0040228240134346
:1047C0000134049314F8011B24488DF828100622A4
:1047D000FBF70EFD002836D0214B1BBB039B073394
:1047E00023F0070308330393099B334409936AE7D3
:1047F0000CFB02320C460120A8E70023013405938C
:1048000019464FF00A0C204610F8012B303A092ABD
:1048100003D9002BC6D00591C4E70CFB0121044647
:104820000123F0E703AB00932A460E4B04A9384658
:10483000AFF30080421C0646D6D1AB895B063FF53C
:104840002DAF09982CE703AB00932A46054B04A92A
:10485000384600F079F8EDE7706000087A600008EB
:1048600000000000BD450008766000082DE9F04713
:10487000164698468A680B69DDF820909342B8BFC7
:104880001346336091F8432007460C460AB10133C2
:1048900033602368990642BF33680233336025686A
:1048A00015F0060506D104F1190AE36832689B1A6F
:1048B000AB4226DC94F843302268003B18BF01234A
:1048C00092062BD404F1430241463846C8470130D2
:1048D0001ED02368226903F00603042B02BFE5689B
:1048E0003368ED1AA3680CBF25EAE57500259342ED
:1048F000C4BF9B1AED1800261A34B5421AD1002005
:1049000008E00123524641463846C847013003D1EA
:104910004FF0FF30BDE8F0870135C6E7E1185A1CBB
:10492000302081F84300224494F8451082F8431067
:104930000233C7E70123224641463846C8470130C3
:10494000E6D00136D9E700002DE9FF470F7E0C9E27
:10495000782F914680460C469A4601F1430207D8CB
:10496000622F0AD8002F00F0DD80582F00F0C3809E
:1049700004F1420684F842703AE0A7F16303152B74
:10498000F6D801A151F823F0E1490008F5490008E3
:10499000714900087149000871490008714900080F
:1049A000F54900087149000871490008714900087B
:1049B000714900080B4B0008834A0008C34A0008ED
:1049C00071490008714900082D4B00087149000821
:1049D000834A00087149000871490008CB4A000861
:1049E00033681A1D1B68326004F1420684F84230B5
:1049F0000123A8E031682368081D30601E0601D538
:104A00000D6803E05D06FBD5B1F900506168002D2B
:104A100078DA2D20002984F84300A1602DDA5E4861
:104A20006D420A231646B5FBF3F103FB1157C75D30
:104A300006F8017D2F46BB420D46F4D9082B0BD159
:104A40002368DF0708D5236961689942DEBF3023F8
:104A500006F8013C06F1FF36921B2261CDF800A05A
:104A60004B4603AA21464046FFF700FF01306FD1B5
:104A70004FF0FF3004B0BDE8F08723F0040323605B
:104A8000CDE721683368080653F8045B02D4490671
:104A900048BFADB26F2F4048336014BF0A230823CC
:104AA000002184F843106668A660002EBADB2168F6
:104AB00021F004012160002DB4D1002EB2D11646A0
:104AC000BCE7236843F0200323603448782784F848
:104AD0004570236831681F0651F8045B02D45F06F5
:104AE00048BFADB23160D90744BF43F02003236013
:104AF0001DB11023D4E72848E9E7236823F02003F9
:104B00002360F6E724480A23CDE733682568616906
:104B1000181D30602E061B6801D5196002E068067A
:104B2000FBD5198000232361164697E733681A1DC9
:104B300032601E68626800213046FBF759FB08B1FD
:104B4000801B606063682361002384F8433085E73D
:104B50002369324649464046D047013088D0236811
:104B60009B0714D4E068039B9842B8BF184681E7BE
:104B70000123324649464046D04701303FF478AFE2
:104B80000135E36803995B1AAB42F1DCEAE70025E3
:104B900004F11906F5E700BF816000089260000883
:104BA000884210B501EB020402D98442234607D89B
:104BB000431EA14208D011F8012B03F8012FF8E79A
:104BC000024401468A4200D110BD13F8014D02F89B
:104BD000014DF7E738B5064D0023044608462B6023
:104BE00001F094F8431C02D12B6803B1236038BD57
:104BF000900300200A44914200F1FF3300D1704736
:104C000010B511F8014B03F8014F9142F9D110BDD5
:104C10002DE9F041804615460C4621B9BDE8F0412A
:104C20001146FFF73FBC2AB9FFF7D0FB002420460E
:104C3000BDE8F08100F01AF88542064602D8B5EBCF
:104C4000500FF4D829464046FFF72CFC07460028B1
:104C5000ECD0B5422A46214628BF3246FFF7CAFFAC
:104C600021464046FFF7B2FB3C46E0E751F8043CE2
:104C7000181F002BBCBF0B58C01870470000000065
:104C8000F8B52DED028B55EC114B57EC106B00F085
:104C90007BF822462B4620462946B0EE408AF0EEAD
:104CA000608AFBF74BFF78B9002200233046394673
:104CB000FBF712FFF0B10022002320462946FBF744
:104CC0000BFF40B19FED288BB0EE480AF0EE680A6A
:104CD000BDEC028BF8BD45EC104B00F049F8002804
:104CE000F2D00022002320462946FBF7FFFE0028D1
:104CF000EAD02EE0B0EE480AF0EE680A00F038F88C
:104D0000A0B151EC180B00220023FBF7E5FE0028B0
:104D1000DAD047EC106B00F02BF80028D4D045EC2B
:104D2000104B00F025F80028CED012E047EC106BB5
:104D300000F01EF80028E4D045EC104B00F018F805
:104D40000028DED053EC182B51EC180BFBF7F6FEC5
:104D500020B901F047F922230360B5E701F042F9D9
:104D600021230360B0E700BF000000000000F03F17
:104D700082B08DED000B019840F0004000F58010EE
:104D8000C00F02B0704700BF2DE9F04F55EC114B3A
:104D900025F0004353EA040057EC106B93B012D196
:104DA000B3198D4987F4002252419842914120D293
:104DB00022462B4630463946FBF770FA41EC100B81
:104DC00013B0BDE8F08F854827F0004A8245B84609
:104DD000314613D908F1404808F5801858EA01080F
:104DE000E6D123197C4985F400225241984591412E
:104DF000DED39FED770B13B0BDE8F08FA9462246B6
:104E000016D08342E6D8504600F0C980B8F1000FB2
:104E100016DB002A40F0B180DFF8CCC1634540F0DA
:104E2000F583B9F1000FC0F2FD8447EC106BC7E7C2
:104E3000002EBDD15345BBD800F01E845046E5E797
:104E4000DFF8A8C1634500F2F183DFF898C163453C
:104E50000FD94FEA235CACF2FF3CBCF1140F40F3D6
:104E6000C784CCF1340C22FA0CFE0EFA0CFC9445EB
:104E700038D0002A48D1B9F1804F3CD0934647EC56
:104E8000106B04910290009300F074FD0499009B54
:104E90000298002945D04FEAD872013A52EA0B0134
:104EA00000F092800BF1FF3B5BEA020B00F0A9835C
:104EB0009FED477B8DED067BB3F1844F40F29880E8
:104EC000474A9342474B40F227849A4500F2C284F6
:104ED000B9F1000FC0F2C284002013B0BDE8F04F5A
:104EE00000F00ABE0EF0010ECEF1020B002A46D1F0
:104EF000B9F1804FC3D132463B4630463946FBF7C5
:104F000083FB41EC100B5BE747EC106B04910290C4
:104F1000009300F02FFD0499009B0298002953D1C3
:104F20008B46314A28F04041914202D0BAF1000F3D
:104F3000B1D1B9F1000F07DA53EC102B2A49002048
:104F4000FBF78CFC41EC100BB8F1000FBFF638AF4B
:104F50000AF1404A0AF5801A5AEA0B0A40F06C84BA
:104F600053EC102B10461946FBF796F902460B46F8
:104F7000FBF774FC41EC100B22E74FF0000B47EC01
:104F8000106B04910290009300F0F4FC0499009BD4
:104F900002980029C5D04FEAD872013A82E7002C66
:104FA0007FF418AF0AF1404303F5801333433FF415
:104FB00020AF0C4B9A4540F20D84B9F1000FC0F2BE
:104FC000838445EC104BFBE632463B46CAE700BF04
:104FD000000000000000F03F0000F0FF0000F07F44
:104FE0000000F043FFFFEF3F0000F03FFFFF3F43B3
:104FF000D94B08EA0303002253B951EC100BD74BED
:10500000FBF702FB41EC100B10EE900A6FF034023C
:105010000315A3F2FF339A18D14B0B92C0F3130080
:1050200040F07F56984246F4401640F32983CD4B1A
:10503000984240F319849FEDB27B8DED087B9FED84
:10504000B27B8DED047B9FEDAE7B8DED107B01324D
:105050000B92A6F58016002753EC102B9246504673
:10506000DDE904233146FBF717F9B346DDE90423F4
:105070008046894650463146CDE90CABFBF70EF928
:1050800002460B460020B849FBF7E8FB8C468346F6
:1050900063465A4640464946CDE90EBCFBF7B4FA92
:1050A0000A460146CDE90012CDE902120021009125
:1050B0007610DDE900AB46F0005606F5002300202F
:1050C000D91906460F4602460B4650465946FBF78D
:1050D0009BFA02460B4640464946FBF7DDF8DDE900
:1050E00004238046894630463946FBF7D5F8024608
:1050F0000B46DDE90C01FBF7CFF852465B46FBF7A8
:1051000083FA02460B4640464946FBF7C5F8DDE9FF
:105110000E23FBF779FADDE90267CDE90401324697
:105120003B4630463946FBF76FFA79A3D3E90023B3
:1051300006460F46FBF768FA77A3D3E90023FBF78F
:10514000ADF832463B46FBF75FFA75A3D3E900237F
:10515000FBF7A4F832463B46FBF756FA72A3D3E9B5
:105160000023FBF79BF832463B46FBF74DFA70A352
:10517000D3E90023FBF792F832463B46FBF744FAAB
:105180006DA3D3E90023FBF789F8324680468946B0
:105190003B4630463946FBF737FA02460B46404657
:1051A0004946FBF731FA524606460F465B46DDE9B3
:1051B0000201FBF773F8DDE90423FBF725FA324619
:1051C0003B46FBF76BF85246804689465B465046A5
:1051D0005946FBF719FA654B002206460F46FBF7C6
:1051E0005DF842464B46CDE90C89FBF757F84FF086
:1051F0000008894642464B4650465946FBF704FA9A
:105200005A4B82468B46002240464946FBF744F8FB
:1052100032463B46FBF740F802460B46DDE90C01FF
:10522000FBF73AF8DDE90223FBF7EEF942464B467D
:1052300006460F46DDE90401FBF7E6F902460B4698
:1052400030463946FBF72AF88046894642464B46A7
:1052500050465946FBF722F8002639A3D3E900232C
:1052600030460F46FBF7D0F95246CDE902015B46C6
:1052700030463946FBF710F802460B464046494691
:10528000FBF70AF830A3D3E90023FBF7BDF9024688
:105290000B463046394616461F462DA3D3E9002358
:1052A000FBF7B2F902460B4630463946FAF7F6FFED
:1052B000DDE91023FAF7F2FF80460B988946FBF7E9
:1052C00039F9424682468B464B46DDE90201FAF740
:1052D000E5FFDDE90823FAF7E1FF52465B46FAF7FE
:1052E000DDFF002652465B4630460F46FAF7D4FFF4
:1052F000DDE90823FAF7D0FFDDE9022338E000BF3B
:105300000000000000000000000000000000F03F6E
:10531000EF4E454A287ECA3F65DBC9934A86CD3F9A
:1053200001411DA96074D13F4D268F515555D53F80
:10533000FFAB6FDBB66DDB3F033333333333E33F18
:10534000000000E009C7EE3FFD033ADC09C7EE3F6D
:10535000F5015B14E02F3EBE0000F07F00004043EB
:105360008E98030079B60B000000F03F0000084063
:10537000FAF792FF02460B4640464946FAF78CFF81
:105380000023CDE900450093DDE9008982464246CD
:105390008B46204629464B46FAF77EFF32463B466F
:1053A000FBF732F922462B4604460D465046594635
:1053B000FBF72AF902460B4620462946FAF76EFF0C
:1053C000424604460D464B4630463946CDE9024535
:1053D000FBF71AF906460F46204629463B46324659
:1053E000FAF75CFFC64B994204460D46884640F3E7
:1053F000238101F13F4303F5E003034340F044827E
:10540000A7A3D3E90023DDE90201FAF747FF02462B
:105410000B462046294614461D4632463B46FAF7BF
:105420003BFF02460B4620462946FBF77DFB002842
:1054300040F02A824FF400734344C3F30A52B14C44
:10544000A2F2FF321441C3F3130AC2F11402002086
:1054500004EA03014AF4801A4AFA02FA0B460246A9
:10546000B8F1000F30463946B8BFCAF1000AFAF762
:1054700013FF02460B4606460F46DDE90201FAF726
:105480000DFF4FEA0A5B0D46002487A3D3E90023F2
:1054900020462946FBF7B8F83246804689463B4607
:1054A00020462946FAF7F8FE02460B46DDE90201DE
:1054B000FAF7F2FE7EA3D3E90023FBF7A5F8024634
:1054C0000B462046294614461D467BA3D3E90023FC
:1054D000FBF79AF802460B4620462946FAF7DEFE0D
:1054E00006460F4632463B4640464946FAF7D6FE48
:1054F00042464B4604460D46FAF7CEFE02460B46A0
:1055000030463946FAF7C8FE2246804689462B4681
:1055100020462946FBF778F869A3D3E9002306461D
:105520000F46FBF771F868A3D3E90023FAF7B4FE3E
:1055300032463B46FBF768F865A3D3E90023FAF748
:10554000ADFE32463B46FBF75FF863A3D3E9002389
:10555000FAF7A2FE32463B46FBF756F860A3D3E9C2
:105560000023FAF79BFE32463B46FBF74DF8024616
:105570000B4620462946FAF78FFE06460F4632466E
:105580003B4620462946FBF73FF802460B4630468D
:10559000394616461F4600224FF08043FAF77CFE3C
:1055A00002460B4630463946FBF758F94246064656
:1055B0000F464B4620462946FBF726F842464B4607
:1055C000FAF76CFE02460B4630463946FAF764FE9F
:1055D00022462B46FAF760FE0B4602464A49002057
:1055E000FAF75AFE0B465B44B3F5801FC0F25681B2
:1055F0001946DDE90623FBF707F841EC100BFFF72E
:10560000DFBB9FED397B8DED067B55E4B9F1804F13
:105610003FF471ACDFF8F8C0E1457FF42FAC47EC04
:10562000106B13B0BDE8F04F00F076BA002A00F01E
:105630004F814FF0020BA2E4DFF8D8C021F0004305
:10564000634540F2E780314B0B4403430AD13246B5
:105650003B46FAF721FEDDE90223FBF75BFA00285F
:105660003FF4E8AEDDE9060100220023FBF73EFA35
:10567000003818BF012030E4002C7FF499AB98E487
:105680009FED1B7B8DED087B9FED1B7B8DED047BE0
:105690009DED087B00278DED107BDDE4AFF30080EE
:1056A000FE822B654715973C00000000432EE63F25
:1056B000EF39FAFE422EE63F396CA80C615C20BE41
:1056C000D0A4BE726937663EF16BD2C541BDBB3E08
:1056D0002CDE25AF6A56113F93BDBE166CC1663FE6
:1056E0003E5555555555C53F000000000000F0BF20
:1056F0000000000000000000000000000000F03F7B
:10570000FFFF8F400000F0FF0000F03F00346F3FCC
:105710000000E03FFFCB90409A45C0F0C780924B1D
:105720009A454FF0000200F2DB8051EC100B8E4BDB
:10573000FAF7B2FD7CA3D3E9002306460F46FAF739
:1057400063FF7BA3D3E9002382468B46304639466C
:10575000FAF75AFF854BCDE9000100223046394661
:10576000FAF752FF02460B4673A1D1E90001FAF79E
:1057700093FD32463B46FAF747FF02460B460020B0
:105780007B49FAF789FD3246804689463B463046DA
:105790003946FAF739FF02460B4640464946FAF7C2
:1057A00033FF67A3D3E90023FAF72EFF02460B4627
:1057B000DDE90001FAF770FD8046894642464B4616
:1057C00050465946FAF76AFD002652465B460F4698
:1057D0003046CDE5B9F1000F9FED5B0BBFF6F0AAA7
:1057E00005F1004300EE104A00EE903AFFF7E8BAE8
:1057F000002A7FF489ABCCF1140C43FA0CFE0EFAAC
:105800000CFC9C4579D0DFF860C163453FF409ABDF
:10581000FFF731BB564A93427DD8DDE9002393461A
:10582000924631E65049002032463B46FBF716F8D7
:1058300041EC100BFFF7C4BABBF1010F7FF4C0AA13
:1058400010EE901A10EE102A01F1004343EC102BD9
:10585000FFF7B6BAB9F1000F7FF73EAB002013B0E7
:10586000BDE8F04F00F050B99FED397B8DED087B1E
:105870009FED397B8DED107B9FED397B4FF48027B9
:105880008DED047BFFF7E8BBDDE906010022002374
:10589000FBF72CF9003818BF0120E0E741EC100BB2
:1058A000504600F071F851EC100BA2E6DDE906015C
:1058B00000220023FBF71AF9003818BF0120B9F1C4
:1058C000000FBFF60AABCAE79FED1F0BFFF778BAD0
:1058D000B9F1804F3FF40FAB4FF0020BFFF7CFBA97
:1058E000DDE906010023FBF701F9003818BF0120AC
:1058F000B9F1000FB3DCFFF7F0BA1B4A93423FF453
:1059000090AAB9F1804F3FF4F6AA0EF0010ECEF145
:10591000020BFFF7B4BA1B15A3F2FE334FF480124B
:1059200042FA03F388E500BF000000604715F73F27
:1059300044DF5DF80BAE543E555555555555D53F92
:10594000FE822B654715F73F0000000000000000B5
:105950000000004003B8E23F06D0CF43EBFD4C3ED1
:10596000000000000000F83F0000F03F0000D03FC2
:105970000000E03F51EC100B024621F0004343ECE5
:10598000102B70470000000038B553EC102B044674
:10599000C3F30A50194678BB23F000411143104667
:1059A00029D0194600223A4B3A4DFAF72DFEAC4267
:1059B00002460B4653DBC1F30A5036384CF2503CDA
:1059C000644523DC044440F2FE7084421EDC002C5B
:1059D00034DC14F1350F3ADB21F0FF4121F4E00112
:1059E000363441EA04531046194600222A4BFAF78E
:1059F0000BFE41EC100B38BD40F2FF7C6045DDD161
:105A00001046FAF74BFC41EC100B38BD002B18A1E7
:105A1000D1E9000107DB16A3D3E90023FAF7F4FD6F
:105A200041EC100B38BD14A1D1E9000110A3D3E95A
:105A30000023FAF7E9FD41EC100BF3E721F0FF41F9
:105A400021F4E00141EA045343EC102B38BD002B54
:105A50000BA1D1E9000102DA0BA1D1E9000108A3F1
:105A6000D3E90023FAF7D0FD41EC100B38BD00BF9D
:105A70009C7500883CE4377E9C7500883CE437FECA
:105A800059F3F8C21F6EA50159F3F8C21F6EA58124
:105A900000005043B03CFFFF0000903C10B52DEDDE
:105AA000028BB0EE408AF0EE608A044600F09AFA6B
:105AB000B0EE480AF0EE680ABDEC028B046010BD3F
:105AC00000B5034683B051EC100B83B1024601F1DF
:105AD0000043CDE90023DDE90023FAF795FD41EC11
